{
  "contractName": "secureLogin",
  "abi": [
    {
      "constant": true,
      "inputs": [
        {
          "internalType": "string",
          "name": "str",
          "type": "string"
        }
      ],
      "name": "get_Hash",
      "outputs": [
        {
          "internalType": "bytes32",
          "name": "",
          "type": "bytes32"
        }
      ],
      "payable": false,
      "stateMutability": "pure",
      "type": "function"
    }
  ],
  "bytecode": "0x608060405234801561001057600080fd5b506101af806100206000396000f3fe608060405234801561001057600080fd5b506004361061002b5760003560e01c8063144dc0ab14610030575b600080fd5b6100e96004803603602081101561004657600080fd5b810190808035906020019064010000000081111561006357600080fd5b82018360208201111561007557600080fd5b8035906020019184600183028401116401000000008311171561009757600080fd5b91908080601f016020809104026020016040519081016040528093929190818152602001838380828437600081840152601f19601f8201169050808301925050505050505091929192905050506100ff565b6040518082815260200191505060405180910390f35b6000816040516020018082805190602001908083835b602083106101385780518252602082019150602081019050602083039250610115565b6001836020036101000a03801982511681845116808217855250505050505090500191505060405160208183030381529060405280519060200120905091905056fea265627a7a72315820de624b96e9fc2330fe30e52f36198ce3580ef67d33cefbc8fc1f54314254e48e64736f6c63430005100032",
  "source": "pragma solidity ^0.5.1;\r\n\r\ncontract secureLogin{\r\n    \r\n    function get_Hash(string memory str) public pure returns(bytes32){\r\n        return keccak256(abi.encodePacked(str));\r\n    }\r\n    \r\n}",
  "sourcePath": "C:/Users/HP/Desktop/BookStore/src/contracts/secureLogin.sol",
  "compiler": {
    "name": "solc",
    "version": "0.5.16+commit.9c3226ce.Emscripten.clang"
  },
  "schemaVersion": "3.3.4",
  "updatedAt": "2021-08-25T13:24:35.077Z",
  "networkType": "ethereum",
  "devdoc": {
    "methods": {}
  },
  "userdoc": {
    "methods": {}
  }
}